:100000006F00A03B00000000380400004604000020
:1000100000000000000000000000000000000000E0
:1000200000000000000000000000000000000000D0
:10003000460400000000000046040000000000002C
:100040004604000046040000460400004604000088
:100050004604000046040000460400004604000078
:100060004604000046040000460400004604000068
:100070004604000046040000460400004604000058
:100080004604000046040000460400004604000048
:100090004604000046040000460400000000000082
:1000A0006340050663C60506138605009305050033
:1000B0001305F0FF630C060293061000637AB60086
:1000C0006358C0001316160093961600E36AB6FE36
:1000D0001305000063E6C500B385C5403365D50050
:1000E00093D6160013561600E39606FE67800000AE
:1000F00093820000EFF05FFB13850500678002002C
:100100003305A0406348B000B305B0406FF0DFF99D
:10011000B305B04093820000EFF01FF93305A04013
:10012000678002009382000063CA0500634C0500EB
:10013000EFF09FF71385050067800200B305B0401C
:10014000E35805FE3305A040EFF01FF63305B0403D
:1001500067800200311126C406C822C6AE84AA8771
:10016000B28599C6014363D79600B684054319A0AA
:100170000143A686338496406353040001442286DB
:100180003A853EC21AC0D929024392472A87B3064C
:1001900085000146B385C4406342B00463D30400C4
:1001A0008144B38596003385E5406304030263729E
:1001B000B7029307A002A38FF5FE9386F5FF637A3B
:1001C000D700238FF5FE9386E5FF6374D700A38ED7
:1001D000F5FEC2403244A24451018280B385C7007B
:1001E00003C50500B385C60005062380A5005DB7DD
:1001F000011106CE22CC26CA02C02A83635705000D
:1002000089E685473303A0403EC0058A13041006E3
:1002100019C213041004BA8459141A853AC81AC2B0
:100220002EC61AC4F135A5472243B24542479376FC
:10023000F50F63E1A7069386060393F6F60F9387FF
:1002400014002380D4001A853AC83EC62EC4A93DA6
:100250009246A245B24742472A8363FBB6028246D2
:1002600099C69306D0022380D70093872400338554
:10027000E7409356F501AA9623800700858601463C
:10028000FD17634BD600F2406244D2440561828080
:10029000BE8461B7A29655B7B305C70083C20700F5
:1002A00003C3050005062380550023806700C9BFEE
:1002B000B70700E09387470F9C438280011122CC4F
:1002C000370400E01304440F184006CE26CA2AC0A3
:1002D0001377070C9306000C630BD70002C8AE849B
:1002E000E9E11C4089C793F7070891E3D1378144BE
:1002F000F24062442685D244056182803386E44020
:100300009D45B28663D3C5009D46B70508008505A7
:10031000084013730508631F030601C936C632C4BB
:100320003AC27937B2462246124793253600014633
:1003300099E11386D6FF8247930537000808BE95DA
:1003400036C43AC22D26C24582471247370600E01E
:10035000A2461306860F0CC20D45B385E700014681
:1003600083C2050005069307060133832700230097
:1003700053006385C6008505E314A6FE1386460078
:10038000136606F82308C1004246369710C0E347BB
:1003900097F6B9BFFD15ADFD1C4093E7070C1CC0D7
:1003A000B9B70147EDB7511122C206C42E843937BF
:1003B000A24022851244310182809701002093815E
:1003C000E14C138181F713050008731005308D4649
:1003D00017050000130505C3558D7310553017051B
:1003E00000201305A5CA97050020938525CA01465C
:1003F0006356B50010C11105E34EB5FE17050000A8
:100400001305054F970500209385C5BF17060020EB
:100410001306C6C76388C500144194C11105910530
:10042000E39AC5FEB7F700E0054798C39307206F2E
:100430007390173473002030371702401C47B706FB
:100440008000D58F1CC7370700E01307470F1C43F8
:1004500093F70708EDFFF325003073263034F326B9
:1004600020347327103405651305C588E92201A0DF
:10047000AA8703C7070001E73385A7408280850765
:10048000CDBF130141FAA2CAA6C886CC2AC02EC28B
:100490003284B68402CA8347040093061400A30F73
:1004A000F10081EBE64056445245C6441301C105B4
:1004B000828036C6130750026380E70212468247E5
:1004C00085451305F1018297B24626C43684D2478A
:1004D000A244AA973ECAC1B70347140013060003FB
:1004E00093060003A30FE10032C6930724006312B2
:1004F000D7083E8481468147A54511A81397270058
:100500000504BA970347F4FF8607B297854613069A
:1005100007FD1375F60FE3F3A5FE99C2A30FE100E3
:100520003EC8E14663D3F60036C81306C0068146CE
:100530006318C7000347040085460504A30FE100C4
:100540000346F101130740066305E6066367C70229
:10055000930780056300F60A93073006630DF60AD9
:1005600031D21246824785451305F101829726C490
:10057000B9BF9306000236C6ADBF13075007630A22
:10058000E602130780076307E60613073007E31A3E
:10059000E6FC3ECC9387440084403EC42685C93D9A
:1005A000E247AA856356F008C246324638182685C7
:1005B0001DA0938744003EC495C61306B6F81810D4
:1005C0009336160088400146A9451D31C246324681
:1005D0003818AA850810BD3E1246AA8528188247F9
:1005E0008297F5B59307500718108546E30CF6FC83
:1005F0008146C9BF8840130686FA938744001810C5
:10060000854613361600C1453EC4DD36C246324625
:10061000AA853818C1B7938744003EC49C40C2469F
:100620003246A30FF100381885451305F10165B76F
:10063000124626856DB71301C1FD32CA2A862EC81F
:1006400036CC814514081305603A06C63ACE3ED032
:1006500036C0053DB2401301410282802A96AA8726
:100660006393C70082802380B7008507D5BF814789
:100670006313F60082803387F50083460700330753
:10068000F50085072300D700E5B7511106C422C243
:1006900026C0AA84F13B2A84AA85268505310565F2
:1006A00085451305058D1939A24013051400124420
:1006B000824431018280B727024023A00700370718
:1006C0000800B717024023A207001307170898C3B2
:1006D00037079F0098C7B70700E09387870F23A0CD
:1006E0000700B70700E09387470F1307000898C378
:1006F0008280211106CA22C826C6753FB71702405C
:10070000984FB7120140938202801367570398CF26
:10071000984FA14085431367470098CF984F1367C0
:10072000070198CF984F1367070298CF370700202B
:1007300093070700138447081307070083478700C0
:100740003A8301453EC01DA883460301BD4505050A
:1007500093D74600AA079697BD8A8443139626002E
:10076000B395C50093C5F5FFE58D8CC38C433396D7
:10077000C000B396D3004D8E90C394CB824709033B
:10078000E344F5FC1307C702E31A87FAB7F700E062
:1007900098478567938787BB3E97B7F600E09C46EE
:1007A000998FE3CE07FEB7070020371501409387E6
:1007B00007001305058003C38700BE853E8681467A
:1007C00005A083420601850613D742002A072A970F
:1007D000184793F2F20033575700058BA380E502C8
:1007E00009068505E3CF66FC9387C702E39587FC7E
:1007F00005651305058C513DB70700209387070059
:10080000BE86BE8403C62401B715014093850580CA
:10081000135746002A072E9718473D8A3357C700BB
:1008200003C62602058B6300C70236C43EC23AC027
:10083000CC4303C6960031C305651305858CE53BA3
:1008400002479247A2462381E60285061387870066
:100850008904E319D7FA9387C702E39387FAB7F7B6
:1008600000E098478567938787BB3E97B7F600E01F
:100870009C46998FE3CE07FE41B785671385478D68
:100880005D3BA246924702477DBF0000444541447C
:10089000204D5354415455533A25303878204D5407
:1008A00056414C3A25303878204D43415553453A0E
:1008B00025303878204D4550433A253038780A00A5
:1008C000696E69740D000000257325643A20480D97
:1008D0000A000000257325643A204C0D0A00000030
:0C08E00041000000430000004400000044
:1008EC0000000000E008000002010200000000000F
:1008FC0000000100020000000000000000000000E9
:10090C0000000000000000000000000002000000D9
:10091C00E40800000800010203040506070020009B
:10092C0021002200230024002500260027000000BF
:10093C00000000000000000003000000E8080000B8
:10094C0006000203040506000000300032003300EC
:10095C0034003500360000000000000000000000EC
:08096C00000000000000000083
:00000001FF
